{
  "_format": "hh-sol-artifact-1",
  "contractName": "BlinkPunks",
  "sourceName": "contracts/BlinkPunks.sol",
  "abi": [
    {
      "inputs": [],
      "stateMutability": "nonpayable",
      "type": "constructor"
    },
    {
      "inputs": [
        {
          "internalType": "address",
          "name": "operator",
          "type": "address"
        }
      ],
      "name": "OperatorNotAllowed",
      "type": "error"
    },
    {
      "anonymous": false,
      "inputs": [
        {
          "indexed": true,
          "internalType": "address",
          "name": "owner",
          "type": "address"
        },
        {
          "indexed": true,
          "internalType": "address",
          "name": "approved",
          "type": "address"
        },
        {
          "indexed": true,
          "internalType": "uint256",
          "name": "tokenId",
          "type": "uint256"
        }
      ],
      "name": "Approval",
      "type": "event"
    },
    {
      "anonymous": false,
      "inputs": [
        {
          "indexed": true,
          "internalType": "address",
          "name": "owner",
          "type": "address"
        },
        {
          "indexed": true,
          "internalType": "address",
          "name": "operator",
          "type": "address"
        },
        {
          "indexed": false,
          "internalType": "bool",
          "name": "approved",
          "type": "bool"
        }
      ],
      "name": "ApprovalForAll",
      "type": "event"
    },
    {
      "anonymous": false,
      "inputs": [
        {
          "indexed": true,
          "internalType": "address",
          "name": "previousOwner",
          "type": "address"
        },
        {
          "indexed": true,
          "internalType": "address",
          "name": "newOwner",
          "type": "address"
        }
      ],
      "name": "OwnershipTransferred",
      "type": "event"
    },
    {
      "anonymous": false,
      "inputs": [
        {
          "indexed": true,
          "internalType": "address",
          "name": "from",
          "type": "address"
        },
        {
          "indexed": true,
          "internalType": "address",
          "name": "to",
          "type": "address"
        },
        {
          "indexed": true,
          "internalType": "uint256",
          "name": "tokenId",
          "type": "uint256"
        }
      ],
      "name": "Transfer",
      "type": "event"
    },
    {
      "inputs": [],
      "name": "OPERATOR_FILTER_REGISTRY",
      "outputs": [
        {
          "internalType": "contract IOperatorFilterRegistry",
          "name": "",
          "type": "address"
        }
      ],
      "stateMutability": "view",
      "type": "function"
    },
    {
      "inputs": [
        {
          "internalType": "address",
          "name": "operator",
          "type": "address"
        },
        {
          "internalType": "uint256",
          "name": "tokenId",
          "type": "uint256"
        }
      ],
      "name": "approve",
      "outputs": [],
      "stateMutability": "nonpayable",
      "type": "function"
    },
    {
      "inputs": [
        {
          "internalType": "address",
          "name": "owner",
          "type": "address"
        }
      ],
      "name": "balanceOf",
      "outputs": [
        {
          "internalType": "uint256",
          "name": "",
          "type": "uint256"
        }
      ],
      "stateMutability": "view",
      "type": "function"
    },
    {
      "inputs": [
        {
          "internalType": "string",
          "name": "_text",
          "type": "string"
        },
        {
          "internalType": "string",
          "name": "_text2",
          "type": "string"
        }
      ],
      "name": "exists",
      "outputs": [
        {
          "internalType": "bool",
          "name": "",
          "type": "bool"
        }
      ],
      "stateMutability": "view",
      "type": "function"
    },
    {
      "inputs": [
        {
          "internalType": "uint256",
          "name": "tokenId",
          "type": "uint256"
        }
      ],
      "name": "getApproved",
      "outputs": [
        {
          "internalType": "address",
          "name": "",
          "type": "address"
        }
      ],
      "stateMutability": "view",
      "type": "function"
    },
    {
      "inputs": [],
      "name": "getMintPrice",
      "outputs": [
        {
          "internalType": "uint256",
          "name": "",
          "type": "uint256"
        }
      ],
      "stateMutability": "view",
      "type": "function"
    },
    {
      "inputs": [
        {
          "internalType": "uint256",
          "name": "",
          "type": "uint256"
        }
      ],
      "name": "imageToTokenId",
      "outputs": [
        {
          "internalType": "string",
          "name": "name",
          "type": "string"
        },
        {
          "internalType": "string",
          "name": "speechBubbleText1",
          "type": "string"
        },
        {
          "internalType": "string",
          "name": "speechBubbleText2",
          "type": "string"
        },
        {
          "internalType": "string",
          "name": "speechBubbleTextColor",
          "type": "string"
        },
        {
          "internalType": "string",
          "name": "punkColor",
          "type": "string"
        },
        {
          "internalType": "string",
          "name": "punkBlinkTime",
          "type": "string"
        },
        {
          "internalType": "string",
          "name": "textBlinkTime",
          "type": "string"
        }
      ],
      "stateMutability": "view",
      "type": "function"
    },
    {
      "inputs": [
        {
          "internalType": "address",
          "name": "owner",
          "type": "address"
        },
        {
          "internalType": "address",
          "name": "operator",
          "type": "address"
        }
      ],
      "name": "isApprovedForAll",
      "outputs": [
        {
          "internalType": "bool",
          "name": "",
          "type": "bool"
        }
      ],
      "stateMutability": "view",
      "type": "function"
    },
    {
      "inputs": [
        {
          "internalType": "string",
          "name": "_userText1",
          "type": "string"
        },
        {
          "internalType": "string",
          "name": "_userText2",
          "type": "string"
        }
      ],
      "name": "mint",
      "outputs": [],
      "stateMutability": "payable",
      "type": "function"
    },
    {
      "inputs": [],
      "name": "mintPrice",
      "outputs": [
        {
          "internalType": "uint256",
          "name": "",
          "type": "uint256"
        }
      ],
      "stateMutability": "view",
      "type": "function"
    },
    {
      "inputs": [],
      "name": "name",
      "outputs": [
        {
          "internalType": "string",
          "name": "",
          "type": "string"
        }
      ],
      "stateMutability": "view",
      "type": "function"
    },
    {
      "inputs": [],
      "name": "owner",
      "outputs": [
        {
          "internalType": "address",
          "name": "",
          "type": "address"
        }
      ],
      "stateMutability": "view",
      "type": "function"
    },
    {
      "inputs": [
        {
          "internalType": "uint256",
          "name": "tokenId",
          "type": "uint256"
        }
      ],
      "name": "ownerOf",
      "outputs": [
        {
          "internalType": "address",
          "name": "",
          "type": "address"
        }
      ],
      "stateMutability": "view",
      "type": "function"
    },
    {
      "inputs": [],
      "name": "paused",
      "outputs": [
        {
          "internalType": "bool",
          "name": "",
          "type": "bool"
        }
      ],
      "stateMutability": "view",
      "type": "function"
    },
    {
      "inputs": [
        {
          "internalType": "uint256",
          "name": "_mod",
          "type": "uint256"
        },
        {
          "internalType": "uint256",
          "name": "_seed",
          "type": "uint256"
        },
        {
          "internalType": "uint256",
          "name": "_salt",
          "type": "uint256"
        }
      ],
      "name": "randomNum",
      "outputs": [
        {
          "internalType": "uint256",
          "name": "",
          "type": "uint256"
        }
      ],
      "stateMutability": "view",
      "type": "function"
    },
    {
      "inputs": [],
      "name": "renounceOwnership",
      "outputs": [],
      "stateMutability": "nonpayable",
      "type": "function"
    },
    {
      "inputs": [
        {
          "internalType": "address",
          "name": "from",
          "type": "address"
        },
        {
          "internalType": "address",
          "name": "to",
          "type": "address"
        },
        {
          "internalType": "uint256",
          "name": "tokenId",
          "type": "uint256"
        }
      ],
      "name": "safeTransferFrom",
      "outputs": [],
      "stateMutability": "nonpayable",
      "type": "function"
    },
    {
      "inputs": [
        {
          "internalType": "address",
          "name": "from",
          "type": "address"
        },
        {
          "internalType": "address",
          "name": "to",
          "type": "address"
        },
        {
          "internalType": "uint256",
          "name": "tokenId",
          "type": "uint256"
        },
        {
          "internalType": "bytes",
          "name": "data",
          "type": "bytes"
        }
      ],
      "name": "safeTransferFrom",
      "outputs": [],
      "stateMutability": "nonpayable",
      "type": "function"
    },
    {
      "inputs": [
        {
          "internalType": "address",
          "name": "operator",
          "type": "address"
        },
        {
          "internalType": "bool",
          "name": "approved",
          "type": "bool"
        }
      ],
      "name": "setApprovalForAll",
      "outputs": [],
      "stateMutability": "nonpayable",
      "type": "function"
    },
    {
      "inputs": [
        {
          "internalType": "uint256",
          "name": "_tokenId",
          "type": "uint256"
        },
        {
          "internalType": "string",
          "name": "_punkColor",
          "type": "string"
        },
        {
          "internalType": "string",
          "name": "_textColor",
          "type": "string"
        }
      ],
      "name": "setCustomColor",
      "outputs": [],
      "stateMutability": "payable",
      "type": "function"
    },
    {
      "inputs": [
        {
          "internalType": "uint256",
          "name": "price",
          "type": "uint256"
        }
      ],
      "name": "setMintPrice",
      "outputs": [],
      "stateMutability": "nonpayable",
      "type": "function"
    },
    {
      "inputs": [],
      "name": "stringLimit",
      "outputs": [
        {
          "internalType": "uint256",
          "name": "",
          "type": "uint256"
        }
      ],
      "stateMutability": "view",
      "type": "function"
    },
    {
      "inputs": [
        {
          "internalType": "bytes4",
          "name": "interfaceId",
          "type": "bytes4"
        }
      ],
      "name": "supportsInterface",
      "outputs": [
        {
          "internalType": "bool",
          "name": "",
          "type": "bool"
        }
      ],
      "stateMutability": "view",
      "type": "function"
    },
    {
      "inputs": [],
      "name": "symbol",
      "outputs": [
        {
          "internalType": "string",
          "name": "",
          "type": "string"
        }
      ],
      "stateMutability": "view",
      "type": "function"
    },
    {
      "inputs": [
        {
          "internalType": "uint256",
          "name": "_tokenId",
          "type": "uint256"
        }
      ],
      "name": "tokenURI",
      "outputs": [
        {
          "internalType": "string",
          "name": "",
          "type": "string"
        }
      ],
      "stateMutability": "view",
      "type": "function"
    },
    {
      "inputs": [
        {
          "internalType": "address",
          "name": "from",
          "type": "address"
        },
        {
          "internalType": "address",
          "name": "to",
          "type": "address"
        },
        {
          "internalType": "uint256",
          "name": "tokenId",
          "type": "uint256"
        }
      ],
      "name": "transferFrom",
      "outputs": [],
      "stateMutability": "nonpayable",
      "type": "function"
    },
    {
      "inputs": [
        {
          "internalType": "address",
          "name": "newOwner",
          "type": "address"
        }
      ],
      "name": "transferOwnership",
      "outputs": [],
      "stateMutability": "nonpayable",
      "type": "function"
    },
    {
      "inputs": [
        {
          "internalType": "uint256",
          "name": "_tokenId",
          "type": "uint256"
        },
        {
          "internalType": "string",
          "name": "_userText1",
          "type": "string"
        },
        {
          "internalType": "string",
          "name": "_userText2",
          "type": "string"
        }
      ],
      "name": "updateMetadataSpeechText",
      "outputs": [],
      "stateMutability": "payable",
      "type": "function"
    },
    {
      "inputs": [],
      "name": "withdraw",
      "outputs": [],
      "stateMutability": "payable",
      "type": "function"
    }
  ],
  "bytecode": "0x6006805460ff60a01b19169055600a60088190556611c37937e0800060095560006101c0908152608090815260076101e0818152660236666303030360cc1b6102005260a052610220818152660236666613530360cc1b6102405260c052610260818152660236666666630360cc1b6102805260e0526102a0818152660233030383030360cc1b6102c052610100526102e0818152661198181818333360c91b610300526101205261032081815266119a3118181c1960c91b6103405261014052610360818152662365653832656560c81b61038052610160526103a08181526608cc8d0d59584d60ca1b6103c052610180526104206040526103e09081526611a3232323232360c91b610400526101a0526200012091600b919062000365565b503480156200012e57600080fd5b50733cc6cdda760b79bafa08df41ecfa224f810dceb660016040518060400160405280600a815260200169426c696e6b50756e6b7360b01b8152506040518060400160405280600381526020016227a1a760e91b8152508160009081620001969190620004e1565b506001620001a58282620004e1565b505050620001c2620001bc6200030f60201b60201c565b62000313565b6daaeb6d7670e522a718067333cd4e3b15620003075780156200025557604051633e9f1edf60e11b81523060048201526001600160a01b03831660248201526daaeb6d7670e522a718067333cd4e90637d3e3dbe906044015b600060405180830381600087803b1580156200023657600080fd5b505af11580156200024b573d6000803e3d6000fd5b5050505062000307565b6001600160a01b03821615620002a65760405163a0af290360e01b81523060048201526001600160a01b03831660248201526daaeb6d7670e522a718067333cd4e9063a0af2903906044016200021b565b604051632210724360e11b81523060048201526daaeb6d7670e522a718067333cd4e90634420e48690602401600060405180830381600087803b158015620002ed57600080fd5b505af115801562000302573d6000803e3d6000fd5b505050505b5050620005ad565b3390565b600680546001600160a01b038381166001600160a01b0319831681179093556040519116919082907f8be0079c531659141344cd1fd0a4f28419497f9722a3daafe3b4186f6b6457e090600090a35050565b828054828255906000526020600020908101928215620003b0579160200282015b82811115620003b057825182906200039f9082620004e1565b509160200191906001019062000386565b50620003be929150620003c2565b5090565b80821115620003be576000620003d98282620003e3565b50600101620003c2565b508054620003f19062000452565b6000825580601f1062000402575050565b601f01602090049060005260206000209081019062000422919062000425565b50565b5b80821115620003be576000815560010162000426565b634e487b7160e01b600052604160045260246000fd5b600181811c908216806200046757607f821691505b6020821081036200048857634e487b7160e01b600052602260045260246000fd5b50919050565b601f821115620004dc57600081815260208120601f850160051c81016020861015620004b75750805b601f850160051c820191505b81811015620004d857828155600101620004c3565b5050505b505050565b81516001600160401b03811115620004fd57620004fd6200043c565b62000515816200050e845462000452565b846200048e565b602080601f8311600181146200054d5760008415620005345750858301515b600019600386901b1c1916600185901b178555620004d8565b600085815260208120601f198616915b828110156200057e578886015182559484019460019091019084016200055d565b50858210156200059d5787850151600019600388901b60f8161c191681555b5050505050600190811b01905550565b61453d80620005bd6000396000f3fe6080604052600436106101c25760003560e01c806369e23cca116100f757806395d89b4111610095578063c87b56dd11610064578063c87b56dd146104c6578063e985e9c5146104e6578063f2fde38b1461052f578063f4a0a5281461054f57600080fd5b806395d89b411461045c578063a22cb46514610471578063a7f93ebd14610491578063b88d4fde146104a657600080fd5b806376121911116100d157806376121911146103e25780638aa0fdad146104155780638da5cb5b146104285780638ff9564f1461044657600080fd5b806369e23cca1461039a57806370a08231146103ad578063715018a6146103cd57600080fd5b80632abedd781161016457806342842e0e1161013e57806342842e0e146103235780635c975abb146103435780636352211e146103645780636817c76c1461038457600080fd5b80632abedd78146102e65780633ccfd60b146102f957806341f434341461030157600080fd5b8063095ea7b3116101a0578063095ea7b31461025657806323b872dd146102785780632656554c1461029857806328294640146102b857600080fd5b806301ffc9a7146101c757806306fdde03146101fc578063081812fc1461021e575b600080fd5b3480156101d357600080fd5b506101e76101e2366004612fd6565b61056f565b60405190151581526020015b60405180910390f35b34801561020857600080fd5b506102116105c1565b6040516101f39190613043565b34801561022a57600080fd5b5061023e610239366004613056565b610653565b6040516001600160a01b0390911681526020016101f3565b34801561026257600080fd5b5061027661027136600461308b565b61067a565b005b34801561028457600080fd5b506102766102933660046130b5565b610693565b3480156102a457600080fd5b506101e76102b336600461319d565b6106be565b3480156102c457600080fd5b506102d86102d3366004613201565b6107b9565b6040519081526020016101f3565b6102766102f436600461322d565b61081e565b610276610d96565b34801561030d57600080fd5b5061023e6daaeb6d7670e522a718067333cd4e81565b34801561032f57600080fd5b5061027661033e3660046130b5565b610df6565b34801561034f57600080fd5b506006546101e790600160a01b900460ff1681565b34801561037057600080fd5b5061023e61037f366004613056565b610e1b565b34801561039057600080fd5b506102d860095481565b6102766103a836600461322d565b610e7b565b3480156103b957600080fd5b506102d86103c836600461329a565b611392565b3480156103d957600080fd5b50610276611418565b3480156103ee57600080fd5b506104026103fd366004613056565b61142c565b6040516101f397969594939291906132b5565b61027661042336600461319d565b61181e565b34801561043457600080fd5b506006546001600160a01b031661023e565b34801561045257600080fd5b506102d860085481565b34801561046857600080fd5b50610211611c65565b34801561047d57600080fd5b5061027661048c36600461335a565b611c74565b34801561049d57600080fd5b506009546102d8565b3480156104b257600080fd5b506102766104c1366004613391565b611c88565b3480156104d257600080fd5b506102116104e1366004613056565b611cb5565b3480156104f257600080fd5b506101e761050136600461340d565b6001600160a01b03918216600090815260056020908152604080832093909416825291909152205460ff1690565b34801561053b57600080fd5b5061027661054a36600461329a565b612158565b34801561055b57600080fd5b5061027661056a366004613056565b6121ce565b60006001600160e01b031982166380ac58cd60e01b14806105a057506001600160e01b03198216635b5e139f60e01b145b806105bb57506301ffc9a760e01b6001600160e01b03198316145b92915050565b6060600080546105d090613440565b80601f01602080910402602001604051908101604052809291908181526020018280546105fc90613440565b80156106495780601f1061061e57610100808354040283529160200191610649565b820191906000526020600020905b81548152906001019060200180831161062c57829003601f168201915b5050505050905090565b600061065e826121db565b506000908152600460205260409020546001600160a01b031690565b816106848161223a565b61068e83836122f3565b505050565b826001600160a01b03811633146106ad576106ad3361223a565b6106b8848484612403565b50505050565b600060015b600a5481116107af57836040516020016106dd9190613496565b60408051601f1981840301815282825280516020918201206000858152600783529290922091926107129260010191016134b2565b6040516020818303038152906040528051906020012014801561078e5750826040516020016107419190613496565b60408051601f1981840301815282825280516020918201206000858152600783529290922091926107769260020191016134b2565b60405160208183030381529060405280519060200120145b1561079d5760019150506105bb565b806107a78161353e565b9150506106c3565b5060009392505050565b604080514260208201526bffffffffffffffffffffffff193360601b1691810191909152605481018390526074810182905260009084906094016040516020818303038152906040528051906020012060001c610816919061356d565b949350505050565b600a548311156108685760405162461bcd60e51b815260206004820152601060248201526f139bc81cdd58da081d1bdad95b881a5960821b60448201526064015b60405180910390fd5b61087183610e1b565b6001600160a01b0316336001600160a01b0316146108ca5760405162461bcd60e51b81526020600482015260166024820152752cb7ba9030b932903737ba103a34329037bbb732b91760511b604482015260640161085f565b600083815260076020526040808220815160e081019092528054829082906108f190613440565b80601f016020809104026020016040519081016040528092919081815260200182805461091d90613440565b801561096a5780601f1061093f5761010080835404028352916020019161096a565b820191906000526020600020905b81548152906001019060200180831161094d57829003601f168201915b5050505050815260200160018201805461098390613440565b80601f01602080910402602001604051908101604052809291908181526020018280546109af90613440565b80156109fc5780601f106109d1576101008083540402835291602001916109fc565b820191906000526020600020905b8154815290600101906020018083116109df57829003601f168201915b50505050508152602001600282018054610a1590613440565b80601f0160208091040260200160405190810160405280929190818152602001828054610a4190613440565b8015610a8e5780601f10610a6357610100808354040283529160200191610a8e565b820191906000526020600020905b815481529060010190602001808311610a7157829003601f168201915b50505050508152602001600382018054610aa790613440565b80601f0160208091040260200160405190810160405280929190818152602001828054610ad390613440565b8015610b205780601f10610af557610100808354040283529160200191610b20565b820191906000526020600020905b815481529060010190602001808311610b0357829003601f168201915b50505050508152602001600482018054610b3990613440565b80601f0160208091040260200160405190810160405280929190818152602001828054610b6590613440565b8015610bb25780601f10610b8757610100808354040283529160200191610bb2565b820191906000526020600020905b815481529060010190602001808311610b9557829003601f168201915b50505050508152602001600582018054610bcb90613440565b80601f0160208091040260200160405190810160405280929190818152602001828054610bf790613440565b8015610c445780601f10610c1957610100808354040283529160200191610c44565b820191906000526020600020905b815481529060010190602001808311610c2757829003601f168201915b50505050508152602001600682018054610c5d90613440565b80601f0160208091040260200160405190810160405280929190818152602001828054610c8990613440565b8015610cd65780601f10610cab57610100808354040283529160200191610cd6565b820191906000526020600020905b815481529060010190602001808311610cb957829003601f168201915b5050509190925250505060808101849052606081018390526000858152600760205260409020815191925082918190610d0f90826135c7565b5060208201516001820190610d2490826135c7565b5060408201516002820190610d3990826135c7565b5060608201516003820190610d4e90826135c7565b5060808201516004820190610d6390826135c7565b5060a08201516005820190610d7890826135c7565b5060c08201516006820190610d8d90826135c7565b50505050505050565b610d9e612434565b604051600090339047908381818185875af1925050503d8060008114610de0576040519150601f19603f3d011682016040523d82523d6000602084013e610de5565b606091505b5050905080610df357600080fd5b50565b826001600160a01b0381163314610e1057610e103361223a565b6106b884848461248e565b6000818152600260205260408120546001600160a01b0316806105bb5760405162461bcd60e51b8152602060048201526018602482015277115490cdcc8c4e881a5b9d985b1a59081d1bdad95b88125160421b604482015260640161085f565b600a54831115610ec05760405162461bcd60e51b815260206004820152601060248201526f139bc81cdd58da081d1bdad95b881a5960821b604482015260640161085f565b610ec983610e1b565b6001600160a01b0316336001600160a01b031614610f225760405162461bcd60e51b81526020600482015260166024820152752cb7ba9030b932903737ba103a34329037bbb732b91760511b604482015260640161085f565b610f2c82826106be565b1515600103610f4d5760405162461bcd60e51b815260040161085f90613687565b600083815260076020526040808220815160e08101909252805482908290610f7490613440565b80601f0160208091040260200160405190810160405280929190818152602001828054610fa090613440565b8015610fed5780601f10610fc257610100808354040283529160200191610fed565b820191906000526020600020905b815481529060010190602001808311610fd057829003601f168201915b5050505050815260200160018201805461100690613440565b80601f016020809104026020016040519081016040528092919081815260200182805461103290613440565b801561107f5780601f106110545761010080835404028352916020019161107f565b820191906000526020600020905b81548152906001019060200180831161106257829003601f168201915b5050505050815260200160028201805461109890613440565b80601f01602080910402602001604051908101604052809291908181526020018280546110c490613440565b80156111115780601f106110e657610100808354040283529160200191611111565b820191906000526020600020905b8154815290600101906020018083116110f457829003601f168201915b5050505050815260200160038201805461112a90613440565b80601f016020809104026020016040519081016040528092919081815260200182805461115690613440565b80156111a35780601f10611178576101008083540402835291602001916111a3565b820191906000526020600020905b81548152906001019060200180831161118657829003601f168201915b505050505081526020016004820180546111bc90613440565b80601f01602080910402602001604051908101604052809291908181526020018280546111e890613440565b80156112355780601f1061120a57610100808354040283529160200191611235565b820191906000526020600020905b81548152906001019060200180831161121857829003601f168201915b5050505050815260200160058201805461124e90613440565b80601f016020809104026020016040519081016040528092919081815260200182805461127a90613440565b80156112c75780601f1061129c576101008083540402835291602001916112c7565b820191906000526020600020905b8154815290600101906020018083116112aa57829003601f168201915b505050505081526020016006820180546112e090613440565b80601f016020809104026020016040519081016040528092919081815260200182805461130c90613440565b80156113595780601f1061132e57610100808354040283529160200191611359565b820191906000526020600020905b81548152906001019060200180831161133c57829003601f168201915b5050509190925250505060208082018590526040808301859052600087815260079092529020815191925082918190610d0f90826135c7565b60006001600160a01b0382166113fc5760405162461bcd60e51b815260206004820152602960248201527f4552433732313a2061646472657373207a65726f206973206e6f7420612076616044820152683634b21037bbb732b960b91b606482015260840161085f565b506001600160a01b031660009081526003602052604090205490565b611420612434565b61142a60006124a9565b565b60076020526000908152604090208054819061144790613440565b80601f016020809104026020016040519081016040528092919081815260200182805461147390613440565b80156114c05780601f10611495576101008083540402835291602001916114c0565b820191906000526020600020905b8154815290600101906020018083116114a357829003601f168201915b5050505050908060010180546114d590613440565b80601f016020809104026020016040519081016040528092919081815260200182805461150190613440565b801561154e5780601f106115235761010080835404028352916020019161154e565b820191906000526020600020905b81548152906001019060200180831161153157829003601f168201915b50505050509080600201805461156390613440565b80601f016020809104026020016040519081016040528092919081815260200182805461158f90613440565b80156115dc5780601f106115b1576101008083540402835291602001916115dc565b820191906000526020600020905b8154815290600101906020018083116115bf57829003601f168201915b5050505050908060030180546115f190613440565b80601f016020809104026020016040519081016040528092919081815260200182805461161d90613440565b801561166a5780601f1061163f5761010080835404028352916020019161166a565b820191906000526020600020905b81548152906001019060200180831161164d57829003601f168201915b50505050509080600401805461167f90613440565b80601f01602080910402602001604051908101604052809291908181526020018280546116ab90613440565b80156116f85780601f106116cd576101008083540402835291602001916116f8565b820191906000526020600020905b8154815290600101906020018083116116db57829003601f168201915b50505050509080600501805461170d90613440565b80601f016020809104026020016040519081016040528092919081815260200182805461173990613440565b80156117865780601f1061175b57610100808354040283529160200191611786565b820191906000526020600020905b81548152906001019060200180831161176957829003601f168201915b50505050509080600601805461179b90613440565b80601f01602080910402602001604051908101604052809291908181526020018280546117c790613440565b80156118145780601f106117e957610100808354040283529160200191611814565b820191906000526020600020905b8154815290600101906020018083116117f757829003601f168201915b5050505050905087565b600854825111156118715760405162461bcd60e51b815260206004820152601b60248201527f5465787420696e70757420312065786365656473206c696d69742e0000000000604482015260640161085f565b600854815111156118c45760405162461bcd60e51b815260206004820152601b60248201527f5465787420696e70757420322065786365656473206c696d69742e0000000000604482015260640161085f565b6118ce82826106be565b15156001036118ef5760405162461bcd60e51b815260040161085f90613687565b60006118fa600a5490565b6119059060016136d5565b90506000611915600942846107b9565b90506000611925600944856107b9565b905060006040518060e0016040528061193d866124fb565b60405160200161194d91906136e8565b6040516020818303038152906040528152602001878152602001868152602001600b85815481106119805761198061371b565b90600052602060002001805461199590613440565b80601f01602080910402602001604051908101604052809291908181526020018280546119c190613440565b8015611a0e5780601f106119e357610100808354040283529160200191611a0e565b820191906000526020600020905b8154815290600101906020018083116119f157829003601f168201915b50505050508152602001600b8481548110611a2b57611a2b61371b565b906000526020600020018054611a4090613440565b80601f0160208091040260200160405190810160405280929190818152602001828054611a6c90613440565b8015611ab95780601f10611a8e57610100808354040283529160200191611ab9565b820191906000526020600020905b815481529060010190602001808311611a9c57829003601f168201915b50505050508152602001611acc856124fb565b611ad5856124fb565b604051602001611ae6929190613731565b6040516020818303038152906040528152602001611b03846124fb565b611b0c866124fb565b604051602001611b1d929190613731565b6040516020818303038152906040528152509050611b436006546001600160a01b031690565b6001600160a01b0316336001600160a01b031614611ba457600954341015611ba45760405162461bcd60e51b81526020600482015260146024820152732737ba1032b737bab3b41032ba341039b2b73a1760611b604482015260640161085f565b611bb2600a80546001019055565b600084815260076020526040902081518291908190611bd190826135c7565b5060208201516001820190611be690826135c7565b5060408201516002820190611bfb90826135c7565b5060608201516003820190611c1090826135c7565b5060808201516004820190611c2590826135c7565b5060a08201516005820190611c3a90826135c7565b5060c08201516006820190611c4f90826135c7565b50905050611c5d338561258e565b505050505050565b6060600180546105d090613440565b81611c7e8161223a565b61068e8383612728565b836001600160a01b0381163314611ca257611ca23361223a565b611cae85858585612733565b5050505050565b6000818152600260205260409020546060906001600160a01b0316611d345760405162461bcd60e51b815260206004820152602f60248201527f4552433732314d657461646174613a2055524920717565727920666f72206e6f60448201526e3732bc34b9ba32b73a103a37b5b2b760891b606482015260840161085f565b6105bb600760008481526020019081526020016000206040518060e0016040529081600082018054611d6590613440565b80601f0160208091040260200160405190810160405280929190818152602001828054611d9190613440565b8015611dde5780601f10611db357610100808354040283529160200191611dde565b820191906000526020600020905b815481529060010190602001808311611dc157829003601f168201915b50505050508152602001600182018054611df790613440565b80601f0160208091040260200160405190810160405280929190818152602001828054611e2390613440565b8015611e705780601f10611e4557610100808354040283529160200191611e70565b820191906000526020600020905b815481529060010190602001808311611e5357829003601f168201915b50505050508152602001600282018054611e8990613440565b80601f0160208091040260200160405190810160405280929190818152602001828054611eb590613440565b8015611f025780601f10611ed757610100808354040283529160200191611f02565b820191906000526020600020905b815481529060010190602001808311611ee557829003601f168201915b50505050508152602001600382018054611f1b90613440565b80601f0160208091040260200160405190810160405280929190818152602001828054611f4790613440565b8015611f945780601f10611f6957610100808354040283529160200191611f94565b820191906000526020600020905b815481529060010190602001808311611f7757829003601f168201915b50505050508152602001600482018054611fad90613440565b80601f0160208091040260200160405190810160405280929190818152602001828054611fd990613440565b80156120265780601f10611ffb57610100808354040283529160200191612026565b820191906000526020600020905b81548152906001019060200180831161200957829003601f168201915b5050505050815260200160058201805461203f90613440565b80601f016020809104026020016040519081016040528092919081815260200182805461206b90613440565b80156120b85780601f1061208d576101008083540402835291602001916120b8565b820191906000526020600020905b81548152906001019060200180831161209b57829003601f168201915b505050505081526020016006820180546120d190613440565b80601f01602080910402602001604051908101604052809291908181526020018280546120fd90613440565b801561214a5780601f1061211f5761010080835404028352916020019161214a565b820191906000526020600020905b81548152906001019060200180831161212d57829003601f168201915b505050505081525050612765565b612160612434565b6001600160a01b0381166121c55760405162461bcd60e51b815260206004820152602660248201527f4f776e61626c653a206e6577206f776e657220697320746865207a65726f206160448201526564647265737360d01b606482015260840161085f565b610df3816124a9565b6121d6612434565b600955565b6000818152600260205260409020546001600160a01b0316610df35760405162461bcd60e51b8152602060048201526018602482015277115490cdcc8c4e881a5b9d985b1a59081d1bdad95b88125160421b604482015260640161085f565b6daaeb6d7670e522a718067333cd4e3b15610df357604051633185c44d60e21b81523060048201526001600160a01b03821660248201526daaeb6d7670e522a718067333cd4e9063c617113490604401602060405180830381865afa1580156122a7573d6000803e3d6000fd5b505050506040513d601f19601f820116820180604052508101906122cb919061376d565b610df357604051633b79c77360e21b81526001600160a01b038216600482015260240161085f565b60006122fe82610e1b565b9050806001600160a01b0316836001600160a01b03160361236b5760405162461bcd60e51b815260206004820152602160248201527f4552433732313a20617070726f76616c20746f2063757272656e74206f776e656044820152603960f91b606482015260840161085f565b336001600160a01b038216148061238757506123878133610501565b6123f95760405162461bcd60e51b815260206004820152603d60248201527f4552433732313a20617070726f76652063616c6c6572206973206e6f7420746f60448201527f6b656e206f776e6572206f7220617070726f76656420666f7220616c6c000000606482015260840161085f565b61068e83836127cc565b61240d338261283a565b6124295760405162461bcd60e51b815260040161085f9061378a565b61068e8383836128b8565b6006546001600160a01b0316331461142a5760405162461bcd60e51b815260206004820181905260248201527f4f776e61626c653a2063616c6c6572206973206e6f7420746865206f776e6572604482015260640161085f565b61068e83838360405180602001604052806000815250611c88565b600680546001600160a01b038381166001600160a01b0319831681179093556040519116919082907f8be0079c531659141344cd1fd0a4f28419497f9722a3daafe3b4186f6b6457e090600090a35050565b6060600061250883612a29565b600101905060008167ffffffffffffffff811115612528576125286130f1565b6040519080825280601f01601f191660200182016040528015612552576020820181803683370190505b5090508181016020015b600019016f181899199a1a9b1b9c1cb0b131b232b360811b600a86061a8153600a850494508461255c57509392505050565b6001600160a01b0382166125e45760405162461bcd60e51b815260206004820181905260248201527f4552433732313a206d696e7420746f20746865207a65726f2061646472657373604482015260640161085f565b6000818152600260205260409020546001600160a01b0316156126495760405162461bcd60e51b815260206004820152601c60248201527f4552433732313a20746f6b656e20616c7265616479206d696e74656400000000604482015260640161085f565b612657600083836001612b01565b6000818152600260205260409020546001600160a01b0316156126bc5760405162461bcd60e51b815260206004820152601c60248201527f4552433732313a20746f6b656e20616c7265616479206d696e74656400000000604482015260640161085f565b6001600160a01b038216600081815260036020908152604080832080546001019055848352600290915280822080546001600160a01b0319168417905551839291907fddf252ad1be2c89b69c2b068fc378daa952ba7f163c4a11628f55a4df523b3ef908290a45b5050565b612724338383612b89565b61273d338361283a565b6127595760405162461bcd60e51b815260040161085f9061378a565b6106b884848484612c57565b60606127a6826000015161277884612c8a565b6020808601516040808801519051612792959493016137d7565b604051602081830303815290604052612d6c565b6040516020016127b691906139c0565b6040516020818303038152906040529050919050565b600081815260046020526040902080546001600160a01b0319166001600160a01b038416908117909155819061280182610e1b565b6001600160a01b03167f8c5be1e5ebec7d5bd14f71427d1e84f3dd0314c0f7b2291e5b200ac8c7c3b92560405160405180910390a45050565b60008061284683610e1b565b9050806001600160a01b0316846001600160a01b0316148061288d57506001600160a01b0380821660009081526005602090815260408083209388168352929052205460ff165b806108165750836001600160a01b03166128a684610653565b6001600160a01b031614949350505050565b826001600160a01b03166128cb82610e1b565b6001600160a01b0316146128f15760405162461bcd60e51b815260040161085f90613a05565b6001600160a01b0382166129535760405162461bcd60e51b8152602060048201526024808201527f4552433732313a207472616e7366657220746f20746865207a65726f206164646044820152637265737360e01b606482015260840161085f565b6129608383836001612b01565b826001600160a01b031661297382610e1b565b6001600160a01b0316146129995760405162461bcd60e51b815260040161085f90613a05565b600081815260046020908152604080832080546001600160a01b03199081169091556001600160a01b0387811680865260038552838620805460001901905590871680865283862080546001019055868652600290945282852080549092168417909155905184937fddf252ad1be2c89b69c2b068fc378daa952ba7f163c4a11628f55a4df523b3ef91a4505050565b60008072184f03e93ff9f4daa797ed6e38ed64bf6a1f0160401b8310612a685772184f03e93ff9f4daa797ed6e38ed64bf6a1f0160401b830492506040015b6d04ee2d6d415b85acef81000000008310612a94576d04ee2d6d415b85acef8100000000830492506020015b662386f26fc100008310612ab257662386f26fc10000830492506010015b6305f5e1008310612aca576305f5e100830492506008015b6127108310612ade57612710830492506004015b60648310612af0576064830492506002015b600a83106105bb5760010192915050565b60018111156106b8576001600160a01b03841615612b47576001600160a01b03841660009081526003602052604081208054839290612b41908490613a4a565b90915550505b6001600160a01b038316156106b8576001600160a01b03831660009081526003602052604081208054839290612b7e9084906136d5565b909155505050505050565b816001600160a01b0316836001600160a01b031603612bea5760405162461bcd60e51b815260206004820152601960248201527f4552433732313a20617070726f766520746f2063616c6c657200000000000000604482015260640161085f565b6001600160a01b03838116600081815260056020908152604080832094871680845294825291829020805460ff191686151590811790915591519182527f17307eab39ab6107e8899845ad3d59bd9653f200f220920489ca2b5937696c31910160405180910390a3505050565b612c628484846128b8565b612c6e84848484612ebf565b6106b85760405162461bcd60e51b815260040161085f90613a5d565b6060600082608001518360a00151604051602001612ca9929190613aaf565b6040516020818303038152906040529050826040015151600003612cf457808360200151604051602001612cde92919061426d565b6040516020818303038152906040529050612d23565b8083602001518460400151604051602001612d11939291906142c5565b60405160208183030381529060405290505b8083606001518460c00151604051602001612d409392919061436c565b6040516020818303038152906040529050612d65816040516020016127929190613496565b9392505050565b60608151600003612d8b57505060408051602081019091526000815290565b60006040518060600160405280604081526020016144c86040913990506000600384516002612dba91906136d5565b612dc4919061444c565b612dcf906004614460565b67ffffffffffffffff811115612de757612de76130f1565b6040519080825280601f01601f191660200182016040528015612e11576020820181803683370190505b509050600182016020820185865187015b80821015612e7d576003820191508151603f8160121c168501518453600184019350603f81600c1c168501518453600184019350603f8160061c168501518453600184019350603f8116850151845350600183019250612e22565b5050600386510660018114612e995760028114612eac57612eb4565b603d6001830353603d6002830353612eb4565b603d60018303535b509195945050505050565b60006001600160a01b0384163b15612fb557604051630a85bd0160e11b81526001600160a01b0385169063150b7a0290612f03903390899088908890600401614477565b6020604051808303816000875af1925050508015612f3e575060408051601f3d908101601f19168201909252612f3b918101906144aa565b60015b612f9b573d808015612f6c576040519150601f19603f3d011682016040523d82523d6000602084013e612f71565b606091505b508051600003612f935760405162461bcd60e51b815260040161085f90613a5d565b805181602001fd5b6001600160e01b031916630a85bd0160e11b149050610816565b506001949350505050565b6001600160e01b031981168114610df357600080fd5b600060208284031215612fe857600080fd5b8135612d6581612fc0565b60005b8381101561300e578181015183820152602001612ff6565b50506000910152565b6000815180845261302f816020860160208601612ff3565b601f01601f19169290920160200192915050565b602081526000612d656020830184613017565b60006020828403121561306857600080fd5b5035919050565b80356001600160a01b038116811461308657600080fd5b919050565b6000806040838503121561309e57600080fd5b6130a78361306f565b946020939093013593505050565b6000806000606084860312156130ca57600080fd5b6130d38461306f565b92506130e16020850161306f565b9150604084013590509250925092565b634e487b7160e01b600052604160045260246000fd5b600067ffffffffffffffff80841115613122576131226130f1565b604051601f8501601f19908116603f0116810190828211818310171561314a5761314a6130f1565b8160405280935085815286868601111561316357600080fd5b858560208301376000602087830101525050509392505050565b600082601f83011261318e57600080fd5b612d6583833560208501613107565b600080604083850312156131b057600080fd5b823567ffffffffffffffff808211156131c857600080fd5b6131d48683870161317d565b935060208501359150808211156131ea57600080fd5b506131f78582860161317d565b9150509250929050565b60008060006060848603121561321657600080fd5b505081359360208301359350604090920135919050565b60008060006060848603121561324257600080fd5b83359250602084013567ffffffffffffffff8082111561326157600080fd5b61326d8783880161317d565b9350604086013591508082111561328357600080fd5b506132908682870161317d565b9150509250925092565b6000602082840312156132ac57600080fd5b612d658261306f565b60e0815260006132c860e083018a613017565b82810360208401526132da818a613017565b905082810360408401526132ee8189613017565b905082810360608401526133028188613017565b905082810360808401526133168187613017565b905082810360a084015261332a8186613017565b905082810360c084015261333e8185613017565b9a9950505050505050505050565b8015158114610df357600080fd5b6000806040838503121561336d57600080fd5b6133768361306f565b915060208301356133868161334c565b809150509250929050565b600080600080608085870312156133a757600080fd5b6133b08561306f565b93506133be6020860161306f565b925060408501359150606085013567ffffffffffffffff8111156133e157600080fd5b8501601f810187136133f257600080fd5b61340187823560208401613107565b91505092959194509250565b6000806040838503121561342057600080fd5b6134298361306f565b91506134376020840161306f565b90509250929050565b600181811c9082168061345457607f821691505b60208210810361347457634e487b7160e01b600052602260045260246000fd5b50919050565b6000815161348c818560208601612ff3565b9290920192915050565b600082516134a8818460208701612ff3565b9190910192915050565b60008083546134c081613440565b600182811680156134d857600181146134ed5761351c565b60ff198416875282151583028701945061351c565b8760005260208060002060005b858110156135135781548a8201529084019082016134fa565b50505082870194505b50929695505050505050565b634e487b7160e01b600052601160045260246000fd5b60006001820161355057613550613528565b5060010190565b634e487b7160e01b600052601260045260246000fd5b60008261357c5761357c613557565b500690565b601f82111561068e57600081815260208120601f850160051c810160208610156135a85750805b601f850160051c820191505b81811015611c5d578281556001016135b4565b815167ffffffffffffffff8111156135e1576135e16130f1565b6135f5816135ef8454613440565b84613581565b602080601f83116001811461362a57600084156136125750858301515b600019600386901b1c1916600185901b178555611c5d565b600085815260208120601f198616915b828110156136595788860151825594840194600190910190840161363a565b50858210156136775787850151600019600388901b60f8161c191681555b5050505050600190811b01905550565b6020808252602e908201527f53706565636820627562626c65207465787420636f6d62696e6174696f6e206160408201526d6c7265616479206578697374732160901b606082015260800190565b808201808211156105bb576105bb613528565b6a426c696e6b50756e6b202360a81b81526000825161370e81600b850160208701612ff3565b91909101600b0192915050565b634e487b7160e01b600052603260045260246000fd5b60008351613743818460208801612ff3565b601760f91b9083019081528351613761816001840160208801612ff3565b01600101949350505050565b60006020828403121561377f57600080fd5b8151612d658161334c565b6020808252602d908201527f4552433732313a2063616c6c6572206973206e6f7420746f6b656e206f776e6560408201526c1c881bdc88185c1c1c9bdd9959609a1b606082015260800190565b683d913730b6b2911d1160b91b815284516000906137fc816009850160208a01612ff3565b71111610113232b9b1b934b83a34b7b7111d1160711b6009918401918201527f426c696e6b2050756e6b732061726520612066756c6c79206f6e20636861696e601b8201527f204e46542c20637573746f6d697a656420627920796f752e0000000000000000603b8201526c1116101134b6b0b3b2911d101160991b60538201527f646174613a696d6167652f7376672b786d6c3b6261736536342c000000000000606082015285516138b681607a840160208a01612ff3565b6139b46139a761399a61398c61398661393361395d61394e61394861393361390a6138fd607a8d8f01017001116101130ba3a3934b13aba32b9911d1607d1b815260110190565b605b60f81b815260010190565b7f7b2274726169745f74797065223a202255707065722074657874222c000000008152601c0190565b68113b30b63ab2911d1160b91b815260090190565b8e61347a565b62089f4b60ea1b815260030190565b7f7b2274726169745f74797065223a20224c6f7765722074657874222c000000008152601c0190565b8961347a565b61227d60f01b815260020190565b605d60f81b815260010190565b607d60f81b815260010190565b98975050505050505050565b7f646174613a6170706c69636174696f6e2f6a736f6e3b6261736536342c0000008152600082516139f881601d850160208701612ff3565b91909101601d0192915050565b60208082526025908201527f4552433732313a207472616e736665722066726f6d20696e636f72726563742060408201526437bbb732b960d91b606082015260800190565b818103818111156105bb576105bb613528565b60208082526032908201527f4552433732313a207472616e7366657220746f206e6f6e20455243373231526560408201527131b2b4bb32b91034b6b83632b6b2b73a32b960711b606082015260800190565b7f3c73766720786d6c6e733d22687474703a2f2f7777772e77332e6f72672f323081527f30302f737667222077696474683d223732382e34343322206865696768743d2260208201527f3630302e353434222076696577426f783d22302030203139322e37333420313560408201527f382e383934223e3c67207472616e73666f726d3d227472616e736c617465282d60608201527f312e393638202d3131352e33333829223e3c67207472616e73666f726d3d226d60808201527f6174726978282e30323030343620302030202d2e303230303436202d33312e3160a08201527f3038313335203237342e323331383329223e3c616e696d61746520617474726960c08201527f62757465547970653d22584d4c22206174747269627574654e616d653d22666960e0820152706c6c222076616c7565733d22233030303b60781b61010082015260006101118451613c0e8183860160208901612ff3565b8301613c2f828201701d919818181d919818181110323ab91e9160791b9052565b614263613c4061012283018761347a565b7f732220726570656174436f756e743d22696e646566696e697465222f3e3c706181527f746820643d224d333730302036323530762d313530682d3137352d313735762d60208201527f3136352d313635682d3136352d313635762d3137302d313730682d3638352d3660408201527f3835762d3136352d3136356831363520313635762d3530352d3530356831363560608201527f203136357631373020313730683137352031373576313635203136356831373060808201527f20313730762d3137352d313735682d3136352d313635762d3136352d3136356860a08201527f2d3137352d313735762d3137302d3137306831373020313730762d3334352d3360c08201527f343568313730203137305631353235203068313730203137307631373030203160e08201527f373030682d3137302d3137316c32203136382031203136372d31363620332d316101008201527f36362032763136352031363568353035203530356c322d31363620332d3136376101208201527f203136352d31203136352d3120332d31363720322d31363868333430203334306101408201527f6c322031363820332031363720313335203220313638203368333276313635206101608201527f3136356833343020333430762d3136352d3136356c3136382d32203136372d336101808201527f20332d31363720322d313638203136382d32203136372d3320332d31303133206101a08201527f322d3130313268313635203136357631313830203131383068313735203137356101c08201527f7633333520333335682d3137352d3137357638353020383530682d3137302d316101e08201527f37307631353020313530483530343520333730307a6d313334322d313332376c6102008201527f332d31363868353035203530356c3220313635203220313635203137302033206102208201527f31373120322d322d3333372d332d333338483438373020333334356c2d3320336102408201527f33382d322033333768383530203835307a6d2d3638322d33303533762d3137306102608201527f68383530203835307631373020313730682d3835302d3835307a6d313639382d6102808201527f3637376c2d332d3136382d3834372d332d3834382d32563531302030683137306102a08201527f20313730763334302033343068363830203638307631373020313730683136356102c08201527f203136357631373020313730682d3136352d3136357a222f3e3c2f673e3c70616102e08201527f746820643d224d3131382e323739203131362e3532396836372e30393363342e6103008201527f353039203020382e31333920332e32373620382e31333920372e3334357632336103208201527f2e363232633020342e3036392d332e363320372e3334352d382e31333920372e6103408201527f333435682d35342e3338394c3131362e3739203137332e3373352e3230332d316103608201527f382e3436312e3639352d31382e3436312d372e3334352d332e3237362d372e336103808201527f34352d372e333435762d32332e36323263302d342e30363920332e36332d372e6103a08201527f33343520382e3133392d372e3334357a222066696c6c3d226e6f6e65222073746103c08201527f726f6b653d222330303022207374726f6b652d77696474683d22322e333832226103e08201527f2f3e3c7465787420786d6c3a73706163653d22707265736572766522207465786104008201527f742d616e63686f723d226d6964646c6522207472616e73666f726d3d226d61746104208201527f726978282e32363435383320302030202e32363435383320312e3936373638336104408201527f203131352e33333736352922207374796c653d2277686974652d73706163653a6104608201527f7072652220666f6e742d7765696768743d223630302220666f6e742d73697a656104808201527f3d2234382220666f6e742d66616d696c793d22597520476f74686963205549226104a08201527f2066696c6c3d222330303022207374726f6b653d222330303022207374726f6b6104c08201527f652d77696474683d222e363838223e3c747370616e20783d223536362e3536316104e08201526411103c9e9160d91b6105008201526105050190565b9695505050505050565b6000835161427f818460208801612ff3565b671c98171b1998911f60c11b90830190815283516142a4816008840160208801612ff3565b671e17ba39b830b71f60c11b60089290910191820152601001949350505050565b600084516142d7818460208901612ff3565b671a9c971b1998911f60c11b90830190815284516142fc816008840160208901612ff3565b7f3c2f747370616e3e3c747370616e20783d223536362e3536312220793d22313160089290910191820152661c971b1998911f60c91b6028820152835161434a81602f840160208801612ff3565b671e17ba39b830b71f60c11b602f929091019182015260370195945050505050565b6000845161437e818460208901612ff3565b80830190507f3c616e696d617465206174747269627574654e616d653d2266696c6c2220766181526a6c7565733d22233030303b60a81b602082015284516143cd81602b840160208901612ff3565b701d919818181d919818181110323ab91e9160791b602b929091019182015283516143ff81603c840160208801612ff3565b7f2220726570656174436f756e743d22696e646566696e697465222f3e3c2f7465603c92909101918201526c3c3a1f1e17b39f1e17b9bb339f60991b605c82015260690195945050505050565b60008261445b5761445b613557565b500490565b80820281158282048414176105bb576105bb613528565b6001600160a01b038581168252841660208201526040810183905260806060820181905260009061426390830184613017565b6000602082840312156144bc57600080fd5b8151612d6581612fc056fe4142434445464748494a4b4c4d4e4f505152535455565758595a6162636465666768696a6b6c6d6e6f707172737475767778797a303132333435363738392b2fa26469706673582212207cfb4a46bf52360c3dcf4f913eb28a7ac71f1fef2ea4af9c927e71644699c5ae64736f6c63430008110033",
  "linkReferences": {},
  "deployedLinkReferences": {}
}